{
    "_format": "hh-sol-artifact-1",
    "contractName": "FastDomain",
    "sourceName": "contracts/FastDomain.sol",
    "abi": [
        {
            "inputs": [
                {
                    "internalType": "contract IERC20",
                    "name": "_fastTokenAddress",
                    "type": "address"
                },
                {
                    "internalType": "contract IFastDomainNFT",
                    "name": "_nftAddr",
                    "type": "address"
                }
            ],
            "stateMutability": "nonpayable",
            "type": "constructor"
        },
        {
            "inputs": [],
            "name": "AddressDontHaveFastDomain",
            "type": "error"
        },
        {
            "inputs": [],
            "name": "DomainExists",
            "type": "error"
        },
        {
            "inputs": [],
            "name": "GetToken",
            "type": "error"
        },
        {
            "inputs": [],
            "name": "HasAlreadyMinted",
            "type": "error"
        },
        {
            "inputs": [],
            "name": "InsufficientToken",
            "type": "error"
        },
        {
            "inputs": [],
            "name": "NotOwner",
            "type": "error"
        },
        {
            "inputs": [],
            "name": "ZeroAddress",
            "type": "error"
        },
        {
            "anonymous": false,
            "inputs": [
                {
                    "indexed": false,
                    "internalType": "string",
                    "name": "domain",
                    "type": "string"
                },
                {
                    "indexed": false,
                    "internalType": "address",
                    "name": "user",
                    "type": "address"
                }
            ],
            "name": "DomainEvent",
            "type": "event"
        },
        {
            "inputs": [],
            "name": "getAllregisteredDomains",
            "outputs": [
                {
                    "internalType": "string[]",
                    "name": "",
                    "type": "string[]"
                }
            ],
            "stateMutability": "view",
            "type": "function"
        },
        {
            "inputs": [
                {
                    "internalType": "address",
                    "name": "_domainAddress",
                    "type": "address"
                }
            ],
            "name": "getDomain",
            "outputs": [
                {
                    "internalType": "string",
                    "name": "",
                    "type": "string"
                }
            ],
            "stateMutability": "view",
            "type": "function"
        },
        {
            "inputs": [
                {
                    "internalType": "string",
                    "name": "domain",
                    "type": "string"
                }
            ],
            "name": "isDomainRegistered",
            "outputs": [
                {
                    "internalType": "bool",
                    "name": "",
                    "type": "bool"
                }
            ],
            "stateMutability": "view",
            "type": "function"
        },
        {
            "inputs": [],
            "name": "mintToken",
            "outputs": [
                {
                    "internalType": "string",
                    "name": "",
                    "type": "string"
                }
            ],
            "stateMutability": "nonpayable",
            "type": "function"
        },
        {
            "inputs": [
                {
                    "internalType": "string",
                    "name": "_newDomain",
                    "type": "string"
                },
                {
                    "internalType": "address",
                    "name": "user",
                    "type": "address"
                }
            ],
            "name": "reassignDomain",
            "outputs": [],
            "stateMutability": "nonpayable",
            "type": "function"
        },
        {
            "inputs": [
                {
                    "internalType": "string",
                    "name": "_domain",
                    "type": "string"
                }
            ],
            "name": "registerFastDomain",
            "outputs": [],
            "stateMutability": "nonpayable",
            "type": "function"
        }
    ],
    "bytecode": "0x6080604052671bc16d674ec800006009553480156200001d57600080fd5b5060405162001ba738038062001ba783398181016040528101906200004391906200018f565b816000806101000a81548173ffffffffffffffffffffffffffffffffffffffff021916908373ffffffffffffffffffffffffffffffffffffffff16021790555080600160006101000a81548173ffffffffffffffffffffffffffffffffffffffff021916908373ffffffffffffffffffffffffffffffffffffffff1602179055505050620001d6565b600080fd5b600073ffffffffffffffffffffffffffffffffffffffff82169050919050565b6000620000fe82620000d1565b9050919050565b60006200011282620000f1565b9050919050565b620001248162000105565b81146200013057600080fd5b50565b600081519050620001448162000119565b92915050565b60006200015782620000f1565b9050919050565b62000169816200014a565b81146200017557600080fd5b50565b60008151905062000189816200015e565b92915050565b60008060408385031215620001a957620001a8620000cc565b5b6000620001b98582860162000133565b9250506020620001cc8582860162000178565b9150509250929050565b6119c180620001e66000396000f3fe608060405234801561001057600080fd5b50600436106100625760003560e01c806316b3b27e146100675780631c452781146100835780632004ffd9146100b3578063aca8afba146100d1578063af87a7fb146100ed578063d17661351461010b575b600080fd5b610081600480360381019061007c9190611309565b61013b565b005b61009d60048036038101906100989190611365565b6106db565b6040516100aa91906113c9565b60405180910390f35b6100bb610710565b6040516100c8919061146c565b60405180910390f35b6100eb60048036038101906100e69190611365565b6109c4565b005b6100f5610f04565b604051610102919061159a565b60405180910390f35b610125600480360381019061012091906115bc565b610fdd565b604051610132919061146c565b60405180910390f35b8073ffffffffffffffffffffffffffffffffffffffff163373ffffffffffffffffffffffffffffffffffffffff16146101a0576040517f30cd747100000000000000000000000000000000000000000000000000000000815260040160405180910390fd5b60095460008054906101000a900473ffffffffffffffffffffffffffffffffffffffff1673ffffffffffffffffffffffffffffffffffffffff166370a08231336040518263ffffffff1660e01b81526004016101fc91906115f8565b60206040518083038186803b15801561021457600080fd5b505afa158015610228573d6000803e3d6000fd5b505050506040513d601f19601f8201168201806040525081019061024c9190611649565b10610283576040517f7602892b00000000000000000000000000000000000000000000000000000000815260040160405180910390fd5b60001515600460008373ffffffffffffffffffffffffffffffffffffffff1673ffffffffffffffffffffffffffffffffffffffff16815260200190815260200160002060009054906101000a900460ff161515141561030e576040517f405b1bdd00000000000000000000000000000000000000000000000000000000815260040160405180910390fd5b6001151560038360405161032291906116b2565b908152602001604051809103902060009054906101000a900460ff1615151415610378576040517f32bbad1c00000000000000000000000000000000000000000000000000000000815260040160405180910390fd5b600073ffffffffffffffffffffffffffffffffffffffff168173ffffffffffffffffffffffffffffffffffffffff1614156103df576040517fd92e233d00000000000000000000000000000000000000000000000000000000815260040160405180910390fd5b60008054906101000a900473ffffffffffffffffffffffffffffffffffffffff1673ffffffffffffffffffffffffffffffffffffffff166323b872dd3330670de0b6b3a76400006040518463ffffffff1660e01b81526004016104449392919061170e565b602060405180830381600087803b15801561045e57600080fd5b505af1158015610472573d6000803e3d6000fd5b505050506040513d601f19601f820116820180604052508101906104969190611771565b506000600260008373ffffffffffffffffffffffffffffffffffffffff1673ffffffffffffffffffffffffffffffffffffffff16815260200190815260200160002080546104e3906117cd565b80601f016020809104026020016040519081016040528092919081815260200182805461050f906117cd565b801561055c5780601f106105315761010080835404028352916020019161055c565b820191906000526020600020905b81548152906001019060200180831161053f57829003601f168201915b50505050509050600060038260405161057591906116b2565b908152602001604051809103902060006101000a81548160ff0219169083151502179055506000600560008473ffffffffffffffffffffffffffffffffffffffff1673ffffffffffffffffffffffffffffffffffffffff16815260200190815260200160002054905083600882815481106105f3576105f26117ff565b5b9060005260206000200190805190602001906106109291906110ae565b5083600260008573ffffffffffffffffffffffffffffffffffffffff1673ffffffffffffffffffffffffffffffffffffffff16815260200190815260200160002090805190602001906106649291906110ae565b50600160038560405161067791906116b2565b908152602001604051809103902060006101000a81548160ff0219169083151502179055507fafc48f03ffadcd79b2947cc8bafad44b82eecd671ef74cc47ae3cbc11685582084336040516106cd92919061182e565b60405180910390a150505050565b60006003826040516106ed91906116b2565b908152602001604051809103902060009054906101000a900460ff169050919050565b606060011515600660003373ffffffffffffffffffffffffffffffffffffffff1673ffffffffffffffffffffffffffffffffffffffff16815260200190815260200160002060009054906101000a900460ff161515141561079d576040517ffdbc52ce00000000000000000000000000000000000000000000000000000000815260040160405180910390fd5b60095460008054906101000a900473ffffffffffffffffffffffffffffffffffffffff1673ffffffffffffffffffffffffffffffffffffffff166370a08231306040518263ffffffff1660e01b81526004016107f991906115f8565b60206040518083038186803b15801561081157600080fd5b505afa158015610825573d6000803e3d6000fd5b505050506040513d601f19601f820116820180604052508101906108499190611649565b1015610881576040517f675cae3800000000000000000000000000000000000000000000000000000000815260040160405180910390fd5b6001600660003373ffffffffffffffffffffffffffffffffffffffff1673ffffffffffffffffffffffffffffffffffffffff16815260200190815260200160002060006101000a81548160ff02191690831515021790555060008054906101000a900473ffffffffffffffffffffffffffffffffffffffff1673ffffffffffffffffffffffffffffffffffffffff1663a9059cbb336009546040518363ffffffff1660e01b815260040161093692919061186d565b602060405180830381600087803b15801561095057600080fd5b505af1158015610964573d6000803e3d6000fd5b505050506040513d601f19601f820116820180604052508101906109889190611771565b506040518060400160405280601e81526020017f4661737420546f6b656e205375636365737366756c6c79204d696e7465640000815250905090565b60095460008054906101000a900473ffffffffffffffffffffffffffffffffffffffff1673ffffffffffffffffffffffffffffffffffffffff166370a08231336040518263ffffffff1660e01b8152600401610a2091906115f8565b60206040518083038186803b158015610a3857600080fd5b505afa158015610a4c573d6000803e3d6000fd5b505050506040513d601f19601f82011682018060405250810190610a709190611649565b1015610aa8576040517f7602892b00000000000000000000000000000000000000000000000000000000815260040160405180910390fd5b60011515600382604051610abc91906116b2565b908152602001604051809103902060009054906101000a900460ff1615151415610b12576040517f32bbad1c00000000000000000000000000000000000000000000000000000000815260040160405180910390fd5b60011515600460003373ffffffffffffffffffffffffffffffffffffffff1673ffffffffffffffffffffffffffffffffffffffff16815260200190815260200160002060009054906101000a900460ff1615151415610ba6576040517f08c379a0000000000000000000000000000000000000000000000000000000008152600401610b9d90611908565b60405180910390fd5b60008054906101000a900473ffffffffffffffffffffffffffffffffffffffff1673ffffffffffffffffffffffffffffffffffffffff166323b872dd3330670de0b6b3a76400006040518463ffffffff1660e01b8152600401610c0b9392919061170e565b602060405180830381600087803b158015610c2557600080fd5b505af1158015610c39573d6000803e3d6000fd5b505050506040513d601f19601f82011682018060405250810190610c5d9190611771565b5080600260003373ffffffffffffffffffffffffffffffffffffffff1673ffffffffffffffffffffffffffffffffffffffff1681526020019081526020016000209080519060200190610cb19291906110ae565b506001600382604051610cc491906116b2565b908152602001604051809103902060006101000a81548160ff0219169083151502179055506001600460003373ffffffffffffffffffffffffffffffffffffffff1673ffffffffffffffffffffffffffffffffffffffff16815260200190815260200160002060006101000a81548160ff0219169083151502179055506000600160009054906101000a900473ffffffffffffffffffffffffffffffffffffffff1673ffffffffffffffffffffffffffffffffffffffff1663d7e4451a336040518263ffffffff1660e01b8152600401610d9e91906115f8565b602060405180830381600087803b158015610db857600080fd5b505af1158015610dcc573d6000803e3d6000fd5b505050506040513d601f19601f82011682018060405250810190610df09190611649565b905080600760003373ffffffffffffffffffffffffffffffffffffffff1673ffffffffffffffffffffffffffffffffffffffff16815260200190815260200160002081905550600882908060018154018082558091505060019003906000526020600020016000909190919091509080519060200190610e719291906110ae565b506001600880549050610e849190611957565b600560003373ffffffffffffffffffffffffffffffffffffffff1673ffffffffffffffffffffffffffffffffffffffff168152602001908152602001600020819055507fafc48f03ffadcd79b2947cc8bafad44b82eecd671ef74cc47ae3cbc1168558208233604051610ef892919061182e565b60405180910390a15050565b60606008805480602002602001604051908101604052809291908181526020016000905b82821015610fd4578382906000526020600020018054610f47906117cd565b80601f0160208091040260200160405190810160405280929190818152602001828054610f73906117cd565b8015610fc05780601f10610f9557610100808354040283529160200191610fc0565b820191906000526020600020905b815481529060010190602001808311610fa357829003601f168201915b505050505081526020019060010190610f28565b50505050905090565b6060600260008373ffffffffffffffffffffffffffffffffffffffff1673ffffffffffffffffffffffffffffffffffffffff1681526020019081526020016000208054611029906117cd565b80601f0160208091040260200160405190810160405280929190818152602001828054611055906117cd565b80156110a25780601f10611077576101008083540402835291602001916110a2565b820191906000526020600020905b81548152906001019060200180831161108557829003601f168201915b50505050509050919050565b8280546110ba906117cd565b90600052602060002090601f0160209004810192826110dc5760008555611123565b82601f106110f557805160ff1916838001178555611123565b82800160010185558215611123579182015b82811115611122578251825591602001919060010190611107565b5b5090506111309190611134565b5090565b5b8082111561114d576000816000905550600101611135565b5090565b6000604051905090565b600080fd5b600080fd5b600080fd5b600080fd5b6000601f19601f8301169050919050565b7f4e487b7100000000000000000000000000000000000000000000000000000000600052604160045260246000fd5b6111b88261116f565b810181811067ffffffffffffffff821117156111d7576111d6611180565b5b80604052505050565b60006111ea611151565b90506111f682826111af565b919050565b600067ffffffffffffffff82111561121657611215611180565b5b61121f8261116f565b9050602081019050919050565b82818337600083830152505050565b600061124e611249846111fb565b6111e0565b90508281526020810184848401111561126a5761126961116a565b5b61127584828561122c565b509392505050565b600082601f83011261129257611291611165565b5b81356112a284826020860161123b565b91505092915050565b600073ffffffffffffffffffffffffffffffffffffffff82169050919050565b60006112d6826112ab565b9050919050565b6112e6816112cb565b81146112f157600080fd5b50565b600081359050611303816112dd565b92915050565b600080604083850312156113205761131f61115b565b5b600083013567ffffffffffffffff81111561133e5761133d611160565b5b61134a8582860161127d565b925050602061135b858286016112f4565b9150509250929050565b60006020828403121561137b5761137a61115b565b5b600082013567ffffffffffffffff81111561139957611398611160565b5b6113a58482850161127d565b91505092915050565b60008115159050919050565b6113c3816113ae565b82525050565b60006020820190506113de60008301846113ba565b92915050565b600081519050919050565b600082825260208201905092915050565b60005b8381101561141e578082015181840152602081019050611403565b8381111561142d576000848401525b50505050565b600061143e826113e4565b61144881856113ef565b9350611458818560208601611400565b6114618161116f565b840191505092915050565b600060208201905081810360008301526114868184611433565b905092915050565b600081519050919050565b600082825260208201905092915050565b6000819050602082019050919050565b600082825260208201905092915050565b60006114d6826113e4565b6114e081856114ba565b93506114f0818560208601611400565b6114f98161116f565b840191505092915050565b600061151083836114cb565b905092915050565b6000602082019050919050565b60006115308261148e565b61153a8185611499565b93508360208202850161154c856114aa565b8060005b8581101561158857848403895281516115698582611504565b945061157483611518565b925060208a01995050600181019050611550565b50829750879550505050505092915050565b600060208201905081810360008301526115b48184611525565b905092915050565b6000602082840312156115d2576115d161115b565b5b60006115e0848285016112f4565b91505092915050565b6115f2816112cb565b82525050565b600060208201905061160d60008301846115e9565b92915050565b6000819050919050565b61162681611613565b811461163157600080fd5b50565b6000815190506116438161161d565b92915050565b60006020828403121561165f5761165e61115b565b5b600061166d84828501611634565b91505092915050565b600081905092915050565b600061168c826113e4565b6116968185611676565b93506116a6818560208601611400565b80840191505092915050565b60006116be8284611681565b915081905092915050565b6000819050919050565b6000819050919050565b60006116f86116f36116ee846116c9565b6116d3565b611613565b9050919050565b611708816116dd565b82525050565b600060608201905061172360008301866115e9565b61173060208301856115e9565b61173d60408301846116ff565b949350505050565b61174e816113ae565b811461175957600080fd5b50565b60008151905061176b81611745565b92915050565b6000602082840312156117875761178661115b565b5b60006117958482850161175c565b91505092915050565b7f4e487b7100000000000000000000000000000000000000000000000000000000600052602260045260246000fd5b600060028204905060018216806117e557607f821691505b602082108114156117f9576117f861179e565b5b50919050565b7f4e487b7100000000000000000000000000000000000000000000000000000000600052603260045260246000fd5b600060408201905081810360008301526118488185611433565b905061185760208301846115e9565b9392505050565b61186781611613565b82525050565b600060408201905061188260008301856115e9565b61188f602083018461185e565b9392505050565b7f4164647265737320686173206120646f6d61696e212c2075706461746520646f60008201527f6d61696e00000000000000000000000000000000000000000000000000000000602082015250565b60006118f26024836113ef565b91506118fd82611896565b604082019050919050565b60006020820190508181036000830152611921816118e5565b9050919050565b7f4e487b7100000000000000000000000000000000000000000000000000000000600052601160045260246000fd5b600061196282611613565b915061196d83611613565b9250828210156119805761197f611928565b5b82820390509291505056fea26469706673582212205f7bd15f41b5e4d9751d1728d47dcae6292a87fb65ffeadebf29bde56ae085ed64736f6c63430008090033",
    "linkReferences": {},
    "deployedLinkReferences": {}
}